:020000040800F2
:10000000005000201D3B0008151C0008171C0008AC
:10001000191C00081B1C00081D1C00080000000023
:100020000000000000000000000000001F1C00088D
:10003000211C000800000000231C0008251C0008EB
:10004000653B0008653B0008653B0008653B000810
:10005000653B0008653B0008653B0008653B000800
:10006000653B0008653B0008653B0008653B0008F0
:10007000653B0008653B0008653B0008653B0008E0
:10008000653B0008653B0008653B00082D1C000827
:100090003D1C00084D1C00085D1C0008653B000865
:1000A000653B0008653B0008653B0008653B0008B0
:1000B0007D1C0008653B0008653B0008653B0008A7
:1000C000653B0008653B0008653B0008653B000890
:1000D000653B0008653B00086D1C0008653B000897
:1000E0008D1C0008653B0008653B0008000000000F
:1000F0000000000000000000000000000000000000
:0C01000000000000000000005FF808F1A3
:1001100010B5054C237833B9044B13B10448AFF341
:1001200000800123237010BD70000020000000003B
:10013000F043000808B5034B1BB103490348AFF374
:10014000008008BD0000000074000020F04300089B
:1001500081F0004102E000BF83F0004330B54FEA78
:1001600041044FEA430594EA050F08BF90EA020FE5
:100170001FBF54EA000C55EA020C7FEA645C7FEA78
:10018000655C00F0E2804FEA5454D4EB5555B8BF9B
:100190006D420CDD2C4480EA020281EA030382EA0C
:1001A000000083EA010180EA020281EA0303362D9E
:1001B00088BF30BD11F0004F4FEA01314FF4801C71
:1001C0004CEA113102D0404261EB410113F0004F83
:1001D0004FEA03334CEA133302D0524263EB43033A
:1001E00094EA050F00F0A780A4F10104D5F1200ED8
:1001F0000DDB02FA0EFC22FA05F2801841F1000133
:1002000003FA0EF2801843FA05F359410EE0A5F106
:1002100020050EF1200E012A03FA0EFC28BF4CF037
:10022000020C43FA05F3C01851EBE37101F00045ED
:1002300007D54FF0000EDCF1000C7EEB00006EEBFA
:100240000101B1F5801F1BD3B1F5001F0CD3490884
:100250005FEA30004FEA3C0C04F101044FEA4452DB
:1002600012F5800F80F09A80BCF1004F08BF5FEA62
:10027000500C50F1000041EB045141EA050130BD42
:100280005FEA4C0C404141EB010111F4801FA4F1E5
:100290000104E9D191F0000F04BF01460020B1FA3A
:1002A00081F308BF2033A3F10B03B3F120020CDA72
:1002B0000C3208DD02F1140CC2F10C0201FA0CF050
:1002C00021FA02F10CE002F11402D8BFC2F1200CB5
:1002D00001FA02F120FA0CFCDCBF41EA0C0190406B
:1002E000E41AA2BF01EB0451294330BD6FEA0404B4
:1002F0001F3C1CDA0C340EDC04F11404C4F120029F
:1003000020FA04F001FA02F340EA030021FA04F3B0
:1003100045EA030130BDC4F10C04C4F1200220FA07
:1003200002F001FA04F340EA0300294630BD21FA45
:1003300004F0294630BD94F0000F83F4801306BF0B
:1003400081F480110134013D4EE77FEA645C18BFFF
:100350007FEA655C29D094EA050F08BF90EA020F96
:1003600005D054EA000C04BF1946104630BD91EA8E
:10037000030F1EBF0021002030BD5FEA545C05D191
:100380004000494128BF41F0004130BD14F58004D0
:100390003CBF01F5801130BD01F0004545F0FE4144
:1003A00041F470014FF0000030BD7FEA645C1ABF79
:1003B000194610467FEA655C1CBF0B46024650EAB0
:1003C000013406BF52EA033591EA030F41F40021DC
:1003D00030BD00BF90F0000F04BF0021704730B562
:1003E0004FF4806404F132044FF000054FF0000137
:1003F00050E700BF90F0000F04BF0021704730B5F8
:100400004FF4806404F1320410F0004548BF4042CC
:100410004FF000013EE700BF42004FEAE2014FEA21
:1004200031014FEA02701FBF12F07F4393F07F4FFC
:1004300081F06051704732F07F4208BF704793F0FF
:100440007F4F04BF41F40021704730B54FF4607412
:1004500001F0004521F000411CE700BF50EA010215
:1004600008BF704730B54FF000050AE050EA0102BE
:1004700008BF704730B511F0004502D5404261EB2E
:1004800041014FF4806404F132045FEA915C3FF46F
:10049000D8AE4FF003025FEADC0C18BF03325FEA0C
:1004A000DC0C18BF033202EBDC02C2F1200300FABD
:1004B00003FC20FA02F001FA03FE40EA0E0021FAE2
:1004C00002F11444BDE600BF70B54FF0FF0C4CF4D0
:1004D000E06C1CEA11541DBF1CEA135594EA0C0F82
:1004E00095EA0C0F00F0DEF82C4481EA030621EABD
:1004F0004C5123EA4C5350EA013518BF52EA0335F8
:1005000041F4801143F4801338D0A0FB02CE4FF0A9
:100510000005E1FB02E506F00042E0FB03E54FF0D9
:100520000006E1FB03569CF0000F18BF4EF0010ED1
:10053000A4F1FF04B6F5007F64F5407404D25FEACD
:100540004E0E6D4146EB060642EAC62141EA555180
:100550004FEAC52040EA5E504FEACE2EB4F1FD0CC2
:1005600088BFBCF5E06F1ED8BEF1004F08BF5FEA40
:10057000500E50F1000041EB045170BD06F00046F2
:1005800046EA010140EA020081EA0301B4EB5C049F
:10059000C2BFD4EB0C0541EA045170BD41F4801197
:1005A0004FF0000E013C00F3AB8014F1360FDEBFBC
:1005B000002001F0004170BDC4F10004203C35DA98
:1005C0000C341BDC04F11404C4F1200500FA05F31B
:1005D00020FA04F001FA05F240EA020001F00042BC
:1005E00021F0004110EBD37021FA04F642EB060132
:1005F0005EEA430E08BF20EAD37070BDC4F10C045C
:10060000C4F1200500FA04F320FA05F001FA04F21F
:1006100040EA020001F0004110EBD37041F100010B
:100620005EEA430E08BF20EAD37070BDC4F1200516
:1006300000FA05F24EEA020E20FA04F301FA05F27E
:1006400043EA020321FA04F001F0004121FA04F226
:1006500020EA020000EBD3705EEA430E08BF20EAF6
:10066000D37070BD94F0000F0FD101F00046400030
:1006700041EB010111F4801F08BF013CF7D041EAB2
:10068000060195F0000F18BF704703F000465200B6
:1006900043EB030313F4801F08BF013DF7D043EA87
:1006A0000603704794EA0C0F0CEA135518BF95EA3D
:1006B0000C0F0CD050EA410618BF52EA4306D1D1C4
:1006C00081EA030101F000414FF0000070BD50EAE3
:1006D000410606BF1046194652EA430619D094EA6D
:1006E0000C0F02D150EA013613D195EA0C0F05D157
:1006F00052EA03361CBF104619460AD181EA0301AB
:1007000001F0004141F0FE4141F470014FF0000062
:1007100070BD41F0FE4141F4780170BD70B54FF0FD
:10072000FF0C4CF4E06C1CEA11541DBF1CEA13557D
:1007300094EA0C0F95EA0C0F00F0A7F8A4EB05045F
:1007400081EA030E52EA03354FEA013100F0888056
:100750004FEA03334FF0805545EA131343EA12631F
:100760004FEA022245EA111545EA10654FEA0026D4
:100770000EF000419D4208BF964244F1FD0404F58D
:10078000407402D25B084FEA3202B61A65EB0305E9
:100790005B084FEA32024FF480104FF4002CB6EBA6
:1007A000020E75EB030E22BFB61A754640EA0C0026
:1007B0005B084FEA3202B6EB020E75EB030E22BF66
:1007C000B61A754640EA5C005B084FEA3202B6EBA7
:1007D000020E75EB030E22BFB61A754640EA9C0066
:1007E0005B084FEA3202B6EB020E75EB030E22BF36
:1007F000B61A754640EADC0055EA060E18D04FEAF4
:10080000051545EA16754FEA06164FEAC30343EA93
:1008100052734FEAC2025FEA1C1CC0D111F4801F60
:100820000BD141EA00014FF000004FF0004CB6E759
:1008300011F4801F04BF01430020B4F1FD0C88BFF8
:10084000BCF5E06F3FF6AFAEB5EB030C04BFB6EB03
:10085000020C5FEA500C50F1000041EB045170BDF6
:100860000EF0004E4EEA113114EB5C04C2BFD4EB23
:100870000C0541EA045170BD41F480114FF0000EA7
:10088000013C90E645EA060E8DE60CEA135594EA23
:100890000C0F08BF95EA0C0F3FF43BAF94EA0C0F26
:1008A0000AD150EA01347FF434AF95EA0C0F7FF49B
:1008B00025AF104619462CE795EA0C0F06D152EAEF
:1008C00003353FF4FDAE1046194622E750EA4106D3
:1008D00018BF52EA43067FF4C5AE50EA41047FF4E4
:1008E0000DAF52EA43057FF4EBAE12E74FEA410247
:1008F00012F5001215D211D56FF47873B3EB625272
:1009000012D94FEAC12343F0004343EA505311F098
:10091000004F23FA02F018BF404270474FF000002A
:10092000704750EA013005D111F0004008BF6FF068
:10093000004070474FF00000704700BF80F000405B
:1009400002E000BF81F0004142001FBF5FEA4103A7
:1009500092EA030F7FEA226C7FEA236C6AD04FEAA7
:100960001262D2EB1363C1BFD218414048404140EC
:10097000B8BF5B42192B88BF704710F0004F40F49E
:10098000000020F07F4018BF404211F0004F41F4BA
:10099000000121F07F4118BF494292EA030F3FD086
:1009A000A2F1010241FA03FC10EB0C00C3F1200399
:1009B00001FA03F100F0004302D5494260EB400028
:1009C000B0F5000F13D3B0F1807F06D340084FEA93
:1009D000310102F10102FE2A51D2B1F1004F40EB88
:1009E000C25008BF20F0010040EA030070474900F0
:1009F00040EB000010F4000FA2F10102EDD1B0FABB
:100A000080FCACF1080CB2EB0C0200FA0CF0AABFAF
:100A100000EBC25052421843BCBFD040184370474D
:100A200092F0000F81F4000106BF80F40000013253
:100A3000013BB5E74FEA41037FEA226C18BF7FEA2A
:100A4000236C21D092EA030F04D092F0000F08BF6C
:100A50000846704790EA010F1CBF0020704712F053
:100A60007F4F04D1400028BF40F00040704712F192
:100A700000723CBF00F50000704700F0004343F0F7
:100A8000FE4040F4000070477FEA226216BF08462D
:100A90007FEA23630146420206BF5FEA412390EAF0
:100AA000010F40F4800070474FF0000304E000BFE6
:100AB00010F0004348BF40425FEA000C08BF704797
:100AC00043F0964301464FF000001CE050EA01025B
:100AD00008BF70474FF000030AE000BF50EA010270
:100AE00008BF704711F0004302D5404261EB41015D
:100AF0005FEA010C02BF84460146002043F0B64382
:100B000008BFA3F18053A3F50003BCFA8CF2083AA6
:100B1000A3EBC25310DB01FA02FC634400FA02FCAF
:100B2000C2F12002BCF1004F20FA02F243EB0200B6
:100B300008BF20F00100704702F1200201FA02FC18
:100B4000C2F1200250EA4C0021FA02F243EB02000B
:100B500008BF20EADC7070474FF0FF3C06E000BFA2
:100B60004FF0010C02E000BF4FF0010C4DF804CD36
:100B70004FEA40024FEA41037FEA226C18BF7FEA46
:100B8000236C11D001B052EA530C18BF90EA010F48
:100B900058BFB2EB030088BFC81738BF6FEAE170D7
:100BA00018BF40F0010070477FEA226C02D15FEA73
:100BB000402C05D17FEA236CE4D15FEA412CE1D0DF
:100BC0005DF8040B704700BF844608466146FFE7A6
:100BD0000FB5FFF7C9FF002848BF10F1000F0FBD88
:100BE0004DF808EDFFF7F4FF0CBF012000205DF881
:100BF00008FB00BF4DF808EDFFF7EAFF34BF012006
:100C000000205DF808FB00BF4DF808EDFFF7E0FF9E
:100C100094BF012000205DF808FB00BF4DF808EDEF
:100C2000FFF7D2FF94BF012000205DF808FB00BF52
:100C30004DF808EDFFF7C8FF34BF012000205DF834
:100C400008FB00BF4FEA4002B2F1FE4F0FD34FF056
:100C50009E03B3EB12620DD94FEA002343F0004329
:100C600010F0004F23FA02F018BF404270474FF0D7
:100C70000000704712F1610F01D1420205D110F05E
:100C8000004008BF6FF0004070474FF00000704711
:100C9000034613F8012B002AFBD1181A01387047BC
:100CA0002DE9F04188B0002404940594069407943B
:100CB000334B9A6942F010029A619A6902F010026D
:100CC0000092009A9A6942F020029A619A6902F0B1
:100CD00020020192019A9A6942F004029A619A698B
:100CE00002F004020292029A9A6942F008029A61A2
:100CF0009B6903F008030393039BDFF8908022466F
:100D00002021404601F07AFD4FF4005304931D4B1F
:100D1000059306941C4E04A9304601F083FC202361
:100D200004930125059506940227079704A94046D8
:100D300001F078FC4FF4507304930595069404A9D0
:100D4000304601F06FFC80230493059506940797C5
:100D500004A9404601F066FC0495059406940797A3
:100D600004A9304601F05EFC22462146282001F00D
:100D7000B5FB282001F0E6FB08B0BDE8F08100BF1C
:100D80000010024000001110001001400008014056
:100D900030B59BB001AC094D0FCD0FC495E80700ED
:100DA00003C4227001A8FFF773FF4FF0FF3382B234
:100DB00001A9034802F050FD1BB030BD3C440008BF
:100DC0009001002030B59BB001AC094D0FCD0FC490
:100DD00095E8070003C4227001A8FFF759FF4FF000
:100DE000FF3382B201A9034802F036FD1BB030BDCB
:100DF000584400089001002030B59BB001AC094D6B
:100E00000FCD0FC495E8070003C4227001A8FFF7B7
:100E10003FFF4FF0FF3382B201A9034802F01CFDEF
:100E20001BB030BD744400089001002030B59BB069
:100E300001AC0A4D0FCD0FC495E8030044F8040B34
:100E4000217001A8FFF724FF4FF0FF3382B201A900
:100E5000034802F001FD1BB030BD00BF9044000804
:100E60009001002072B6FEE708B50D480D4B0360F7
:100E70001223436000238360C3604FF44022026169
:100E80004FF4801242610376012242768376C27665
:100E90000377437700F068FF00B908BDFFF7E2FF72
:100EA000D80000200064004000B58DB000230493FA
:100EB000069308930A930193029313484FF08042DC
:100EC0000260F9224260836040F6FF12C260036153
:100ED00083610123039305930A22079209930B92DE
:100EE00003A902F07CF950B900230193029301A9F0
:100EF000054802F093FB20B90DB05DF804FBFFF745
:100F0000B1FFFFF7AFFF00BF4801002000B58BB075
:100F10000023089309930193029303930493059389
:100F2000069307931648174A0260436083604FF6A2
:100F3000FF72C2600361836102F026F9C8B9002321
:100F40000893099308A90E4802F068FB98B960233A
:100F500001930B48C368029300220392059201A9F2
:100F600002F0C8F948B9064800F0F4FD0BB05DF88E
:100F700004FBFFF777FFFFF775FFFFF773FF00BF75
:100F8000000100200004004008B50A480A4B036035
:100F90004FF4E133436000238360C36003610C229C
:100FA00042618361C36102F028FC00B908BDFFF70C
:100FB00059FF00BF900100200044004000B591B0EF
:100FC0002022002107A802F0F9FD002301930293DB
:100FD0000393049305930A23069301230A93102293
:100FE0000B920C9302230D934FF460130F9306A8FA
:100FF00001F030FC80B90F230193022102910023FC
:1010000003934FF480620492059301A801F062FEFD
:1010100020B911B05DF804FBFFF724FFFFF722FFB2
:1010200000B58BB00122089200230593049300932E
:10103000019302930393069307926946044800F0D4
:1010400039FF10B90BB05DF804FBFFF70BFF00BFD1
:10105000D80000200000000030B5B3B000F060FE02
:10106000FFF7ACFFFFF71CFEFFF7FEFEFFF71CFFCC
:10107000FFF74CFFFFF788FFFFF7D2FF6C46A64D46
:101080000FCD0FC495E8070003C422806846FFF720
:10109000FFFD4FF0FF3382B26946A04802F0DCFB4F
:1010A00040F203419E4801F0C0F808B1FFF7DAFEB4
:1010B0009B4800F07DFF08B1FFF7D4FE042199485A
:1010C00002F044FA6C46984D0FCD0FC40FCD0FC4FB
:1010D00095E80F0084E80F006846FFF7D9FD4FF050
:1010E000FF3382B269468D4802F0B6FB8F4B904ABF
:1010F0001A60C8220021684602F060FD4FF080436C
:101100005B6A8A4B00225A6099681868FFF768FD8D
:1011100018B9864B0122DA6051E1844B0022DA6073
:101120004DE1824D6C612046FFF776F978A3D3E953
:101130000023FFF7C9F9FFF7D9FB0246A8617D49F3
:10114000684602F043FD6846FFF7A2FD4FF0FF330B
:1011500082B26946714802F07FFBE9692868FFF7AF
:101160005DFD002835D000228021734801F046FB48
:101170006B684BB36D4B1B695A1E2C2A00F21F8102
:101180006A4A92699342C0F21A816C466B4D0FCD48
:101190000FC495E80F0007C423706846FFF778FD79
:1011A0004FF0FF3382B269465C4802F055FB0021E4
:1011B000634802F089F95D4B01225A600022DA602F
:1011C0001A68DA619A60FAE000215D4802F00AF9D3
:1011D000D0E701228021584801F010FB534B5B6897
:1011E0004BB3524B1B695A1E2C2A00F2E8804F4A1F
:1011F0009269934200F3E3806C46504D0FCD0FC4CB
:1012000095E80F0007C423706846FFF741FD4FF0D3
:10121000FF3382B26946414802F01EFB0021484874
:1012200002F052F9414B01225A600022DA601A683A
:10123000DA619A60C3E0434B6C460FCB07C423804E
:101240006846FFF725FD4FF0FF3382B26946334809
:1012500002F002FB00213A4802F0C4F8C1E7334D26
:101260006C612046FFF7D8F829A3D3E90023FFF7E4
:101270002BF9FFF73BFBC0F52062AA612D496846B8
:1012800002F0A4FC6846FFF703FD4FF0FF3382B283
:101290006946224802F0E0FA296A2868FFF7BEFC96
:1012A000002851D001228021234801F0A7FA6B6861
:1012B00043B31E4B1B69A3F6D3122C2A7FD81B4ABB
:1012C000926993427BDC6C461C4D0FCD0FC495E8B0
:1012D0000F0007C423706846FFF7DAFC4FF0FF33B6
:1012E00082B269460D4802F0B7FA0021144802F0B4
:1012F000EBF80E4B01225A600022DA601A681A627B
:101300009A605CE000210E4802F06CF8D1E700BF63
:10131000A245B6F3FDD4E03FA844000890010020A8
:10132000D800002048010020C44400088C000020A0
:1013300000000C430845000800080140284500084B
:10134000000100204845000800228021514801F09A
:1013500055FA514B5B6843B34F4B1B69A3F64C42A4
:10136000322A2CD84C4A9269934228DB6C464B4D6A
:101370000FCD0FC495E80F0007C423706846FFF730
:1013800087FC4FF0FF3382B26946454802F064FAA9
:101390000021444802F098F83F4B01225A60002295
:1013A000DA601A681A629A6009E000213D4802F08A
:1013B00019F8D1E7384B0022DA601C629C60364B8A
:1013C000DB68002B3FF495AEC8252A46002168460D
:1013D00002F0F4FB4FF080435C6AA4B2224632492B
:1013E000684602F0F3FB4FF480532A4669462C48C6
:1013F00002F032FA284B1C611C682C492046FFF78A
:1014000017FC30B12A492046FFF7F4FB00287FF48F
:1014100088AE4FF081412046FFF70AFC30B12549E4
:101420002046FFF7E7FB00287FF419AF0021204694
:10143000FFF7F4FB30B14FF081412046FFF7E4FBAA
:101440000028B7D11B492046FFF7E8FB28B11A490D
:101450002046FFF7D9FB0028ACD118492046FFF7FA
:10146000DDFB20B116492046FFF7CEFB58B91549E0
:101470002046FFF7D3FB0028A1D00D492046FFF7F7
:10148000C3FB00289BD0044B0022DA60DC619C6027
:1014900095E700BF000801408C00002028450008A7
:1014A0009001002000010020F44400080000B84230
:1014B000000032430000B0420000B4420000B642D7
:1014C0000000BC4200003443F0B5A5B022ABA64AF0
:1014D000002100F010FEB0B9A34B1A6840F25D6322
:1014E0009A4212D000242046FFF7E2FA9F4B186080
:1014F00000225A609968FFF773FB002831D19B4B9B
:101500000122DA6082E1FFF7ADFC974BDB680BB19B
:101510000024E8E79DF888309DF889109DF88A40FE
:101520009DF88B009DF88C509DF88D609DF88E7015
:101530009DF88FC0CDF818C00597049603950290CA
:10154000019400918A4909A802F040FB09A8FFF71D
:101550009FFB4FF0FF3382B209A9864802F07CF965
:10156000C1E7824B0022DA6050E1804D6C61204679
:10157000FEF752FF7AA3D3E90023FEF7A5FFFFF79A
:10158000B5F90246A8617C4909A802F01FFB09A829
:10159000FFF77EFB4FF0FF3382B209A9304602F01D
:1015A0005BF9E9692868FFF739FB002844D000227D
:1015B0008021724801F022F96B684BB36B4B1B69B9
:1015C0005A1E322A00F22281684A92699342C0F27E
:1015D0001D8109AC6A4D0FCD0FC495E80F0007C4FB
:1015E000237009A8FFF754FB4FF0FF3382B209A91B
:1015F000604802F031F90021624801F065FF5B4B61
:1016000001225A600022DA601A68DA619A60FDE00D
:101610005D4B09AC0FCB07C4238009A8FFF738FB4B
:101620004FF0FF3382B209A9304602F015F90021CC
:10163000544801F0D7FEC1E7012280214F4801F054
:10164000DDF84A4B5B684BB3484B1B695A1E322A84
:1016500000F2DC80454A9269934200F3D78009ACDE
:10166000474D0FCD0FC495E80F0007C4237009A89C
:10167000FFF70EFB4FF0FF3382B209A93D4802F09D
:10168000EBF800213F4801F01FFF384B01225A6060
:101690000022DA601A68DA619A60B7E03A4B09AC66
:1016A0000FCB07C4238009A8FFF7F2FA4FF0FF33EE
:1016B00082B209A92F4802F0CFF80021314801F089
:1016C00091FEC1E7294D6C612046FFF7BBFAC0F5DA
:1016D00047620F32AA61284909A802F077FA09A8DF
:1016E000FFF7D6FA4FF0FF3382B209A9214802F082
:1016F000B3F8296A2868FFF791FA00284BD0012235
:1017000080211E4801F07AF86B68002B3ED0174B01
:101710001B69A3F64C42322A78D8144A9269934244
:1017200074DC09AC164D0FCD0FC495E80F0007C44B
:10173000237009A8FFF7ACFA4FF0FF3382B209A972
:101740000C4802F089F800210E4801F0BDFE074B5D
:1017500001225A600022DA601A681A629A6055E023
:101760000E2DB29DEFA7E23FE80100208C00002083
:101770005845000890010020084500080008014075
:1017800028450008000100204845000800215D4868
:1017900001F028FEBBE7002280215B4801F02EF813
:1017A0005A4B5B6843B3594B1B69A3F64C42322A30
:1017B0002CD8564A9269934228DB09AC544D0FCD80
:1017C0000FC495E80F0007C4237009A8FFF760FA5B
:1017D0004FF0FF3382B209A94E4802F03DF80021D4
:1017E000484801F071FE494B01225A600022DA603C
:1017F0001A681A629A6009E00021424801F0F2FD7D
:10180000D1E7424B0022DA601C629C603F4BDB68F0
:10181000002B74D064252A46002109A802F0CEF9D5
:101820003D4B5A6A92B2394CA2843C4909A802F055
:10183000CDF9384E4FF480532A4609A9304602F0BC
:101840000BF82068FFF7FEF90246354909A802F0B7
:10185000BDF94FF480532A4609A9304601F0FCFF38
:10186000A38C236124682F492046FFF7E1F930B1AA
:101870002D492046FFF7BEF900287FF476AE4FF0E1
:1018800081412046FFF7D4F930B128492046FFF7BF
:10189000B1F900287FF416AF00212046FFF7BEF90A
:1018A00030B14FF081412046FFF7AEF90028A8D1B2
:1018B0001E492046FFF7B2F928B11D492046FFF71F
:1018C000A3F900289DD11B492046FFF7A7F920B1B5
:1018D00019492046FFF798F958B918492046FFF7EB
:1018E0009DF9002892D010492046FFF78DF9002875
:1018F0008CD0064B0022DA60DC619C6086E725B064
:10190000F0BD00BF00010020000801408C00002055
:101910002845000890010020002C01408C4500085B
:10192000A44500080000B842000032430000B04265
:101930000000B4420000B6420000BC420000344344
:10194000F0B59DB01D4B19AF93E8030087E8030085
:101950001B4E0823336140F25D6333600023B360A4
:10196000F3606C46174D0FCD0FC42B68238068467B
:10197000FFF78EF94FF0FF3382B26946124801F04B
:101980006BFF1BAB3A463146104800F03FFB08B9ED
:101990001DB0F0BD0E4B6C460FCB07C424F8023BC4
:1019A0001B0C23706846FFF773F94FF0FF3382B2C8
:1019B0006946054801F050FFFFF754FA0844000853
:1019C000D0010020B845000890010020D800002078
:1019D000CC45000808B5FFF7B3FF08BD08B50320E4
:1019E00000F06AFD0B4A536A43F4E023536200227D
:1019F00011466FF00B0000F071FD002211466FF0F0
:101A00000A0000F06BFD002211466FF0090000F0A3
:101A100065FD08BD00ED00E030B587B000230293FE
:101A20000393049305930268274B9A4201D007B0B1
:101A300030BD03F5D633DA6942F00072DA61DA6953
:101A400002F000720092009A9A6942F004029A61D0
:101A50009B6903F004030193019B06AC4FF4006300
:101A600044F8103D194D2146284600F0DBFD4FF4A7
:101A700080530293022303930323059321462846B0
:101A800000F0D0FD00220F21132000F027FD1320CD
:101A900000F058FD00220F21142000F01FFD14203B
:101AA00000F050FD00220F21152000F017FD152039
:101AB00000F048FD00220F21162000F00FFD162037
:101AC00000F040FDB3E700BF0064004000080140A3
:101AD00000B587B000230293039304930593036832
:101AE000B3F1804F02D007B05DF804FB03F5043377
:101AF000DA6942F00102DA61DA6902F00102009269
:101B0000009A9A6942F004029A619B6903F0040307
:101B10000193019B06A9032341F8103D014800F001
:101B200081FDE0E7000801400268094B9A4200D0BD
:101B3000704782B003F50333DA6942F00202DA61DA
:101B4000DB6903F002030193019B02B0704700BF01
:101B50000004004000B587B0002302930393049370
:101B6000059302680D4B9A4202D007B05DF804FB62
:101B700003F503339A6942F004029A619B6903F00A
:101B800004030193019B40230293022303930593D3
:101B900002A9034800F046FDE7E700BF000400404B
:101BA0000008014000B587B000230293039304931B
:101BB00005930268154B9A4202D007B05DF804FB0A
:101BC00003F5E633DA6942F40032DA61DA6902F4E5
:101BD00000320092009A9A6942F004029A619B696D
:101BE00003F004030193019B0C230293022303934C
:101BF000059302A9064800F015FD262000F0A2FC7E
:101C000000220F21262000F069FCD6E700440040A6
:101C100000080140FEE7FEE7FEE7FEE7FEE770474B
:101C20007047704708B500F08DF808BD08B5024848
:101C300000F015FB08BD00BFD800002008B5024821
:101C400000F00DFB08BD00BFD800002008B5024819
:101C500000F005FB08BD00BFD800002008B5024811
:101C600000F0FDFA08BD00BFD800002008B502480A
:101C700001F0B8FE08BD00BF9001002008B5024881
:101C800001F08AF908BD00BF4801002008B54FF4F3
:101C9000005000F0BBFD08BD08B503460B4A1268B2
:101CA00042B10A4A106803446A46934206D8074A7A
:101CB000136008BD054A06491160F2E701F054FFC0
:101CC0000C2303604FF0FF30F3E700BFBC0000209F
:101CD000100200207047000010B504460E4B187823
:101CE0004FF47A73B3FBF0F30C4A1068B0FBF3F0D7
:101CF00000F036FC68B90F2C01D901200AE000225F
:101D000021464FF0FF3000F0E9FB034B5C60002000
:101D100000E0012010BD00BF0400002000000020F2
:101D200008B5074A136843F010031360032000F05E
:101D3000C3FB0020FFF7D0FFFFF750FE002008BDD7
:101D400000200240034A1168034B1B780B441360C8
:101D5000704700BF0402002004000020014B1868F7
:101D6000704700BF04020020002800F0A18038B5B1
:101D7000044690F82030D3B12268136823F00203A0
:101D80001360FFF7EBFF054623685A6812F0020F55
:101D900010D0FFF7E3FF401B0A28F5D9636A43F42C
:101DA00000336362052384F82030012038BDFFF73B
:101DB00033FEE1E71A6842F001021A60FFF7CEFF36
:101DC000054623685A6812F0010F0DD1FFF7C6FFD0
:101DD000401B0A28F5D9636A43F400336362052384
:101DE00084F820300120E1E7227E012A3DD01A68E4
:101DF00022F080021A60637E012B3BD022681368B8
:101E000023F040031360A37E012B39D022681368AE
:101E100023F020031360E37E012B37D02268136880
:101E200043F010031360237F012B35D02268136821
:101E300023F008031360637F012B33D022681368FB
:101E400023F004031360A368E26813432269134379
:101E5000626913436268013A21681343CB61002031
:101E60006062012384F82030A0E71A6842F0800203
:101E70001A60C0E72268136843F040031360C2E7AA
:101E80002268136843F020031360C4E722681368D4
:101E900023F010031360C6E72268136843F00803B9
:101EA0001360C8E72268136843F004031360CAE7AD
:101EB00001207047036890F82020013AD2B2012A2D
:101EC00005D9436A43F4802343620120704770B40C
:101ED000D3F8002242F00102C3F800224A6902F05E
:101EE0001F02012000FA02F2D3F81C42D043044042
:101EF000C3F81C42CC69ACB9D3F80C420440C3F817
:101F00000C42CE688D884C6945EA0645483443F852
:101F100034508E680D884C6945EA0645483403EB19
:101F2000C4046560CC69012C19D08C6974BBD3F8EA
:101F300004420440C3F804420C696CBBD3F8144259
:101F40002040C3F81402096A01292BD0D3F80022DB
:101F500022F00102C3F80022002070BC7047D3F8C1
:101F60000C421443C3F80C420E688D884C6945EA54
:101F70000645483443F834508E688D894C6945EAEB
:101F80000645483403EBC4046560CEE7D3F8044249
:101F90001443C3F80442CFE7D3F814021043C3F844
:101FA0001402D0E7D3F81C120A43C3F81C22CDE771
:101FB00038B590F82030DBB2012B05D0436A43F4EA
:101FC00000234362012038BD0446022380F82030FC
:101FD0000268136823F001031360FFF7BFFE054694
:101FE00023685B6813F0010F0DD0FFF7B7FE401BAD
:101FF0000A28F5D9636A43F400336362052384F841
:1020000020300120DFE700206062DCE770B490F848
:1020100020400568AD68013CE4B2012C06D9436A52
:1020200043F480234362012070BC704715F0E05FE9
:102030005BD0C5F30165022D3ED80124AC401C6085
:102040008B68002B3ED10E68CB68046843EA465685
:1020500005F118031B01E65003680C6905F1180629
:1020600003EB06135C600B7D012B36D0D17993799D
:102070001B0443EA0163517943EA0123147901689F
:1020800023432C012144C1F88C31D17893781B046F
:1020900043EA0163517843EA0123117802680B4354
:1020A0002244C2F88831026818352D01535943F093
:1020B000010353510020B7E7436A43F4000343622E
:1020C0000120B1E74C6843EAC403CC6806682343A7
:1020D00005F1180424013351BEE7036803EB06132E
:1020E000596841F480715960C0E7436A43F40013B2
:1020F0004362012098E730B490F82040013CE4B2FC
:10210000012C06D9436A43F480234362012030BC8A
:10211000704700296FD10468E46814F0030F64D09D
:10212000056801F11B0424012C5904F00404946097
:10213000002C6BD1056801F11B0424012C59640D9E
:102140001460056801F11B0424012D5905F00205F6
:10215000D560056825446D6805F00F0515610568B3
:1021600025446D68C5F30725956105682C446468AE
:10217000240C546104680A011444D4F8B8411C705A
:1021800004681444D4F8B841C4F307245C700468AC
:102190001444D4F8B841C4F307449C700468144450
:1021A000D4F8B841240EDC7004681444D4F8BC415F
:1021B0001C7104681444D4F8BC41C4F307245C7156
:1021C00004681444D4F8BC41C4F307449C71046807
:1021D0002244D2F8BC21120EDA71F9B90268D36830
:1021E00043F02003D360002091E7436A43F40013D7
:1021F000436201208BE70468246914F0030F8FD138
:10220000436A43F400134362012080E7056801F14B
:102210001B0424012C59E408546092E702681369F6
:1022200043F020031361002071E790F82030013B58
:10223000DBB2012B05D9436A43F4802343620120BA
:102240007047026853691943516100207047704715
:1022500070477047704770477047704770472DE967
:10226000F84F054603685C695F689E68D3F80C9078
:10227000D3F81080D3F818A014F0010F5AD016F03C
:10228000010F17D001229A6016F0020F08D116F044
:10229000040F30D116F0080F07D04FF4805B0BE02D
:1022A000FEF776FD4FF0000B06E0FFF7D0FF4FF092
:1022B000000B01E04FF0000B16F4807F0BD02B6871
:1022C0004FF480729A6016F4007F17D116F4806F75
:1022D00018D04BF4005B16F4803F2DD02B684FF4E0
:1022E00080329A6016F4003F16D116F4802F17D072
:1022F0004BF4004B20E04FF4006BDDE72846FEF77F
:1023000061FDE8E716F4006F02D04BF4804BE2E782
:102310002846FFF79DFFDEE72846FEF76DFD0BE040
:1023200016F4002F02D04BF4803B05E02846FFF75F
:1023300090FF01E04FF0000B14F0080F07D019F0E8
:10234000100F04D04BF4007B2B681022DA6014F0DD
:10235000040F02D019F0080F60D114F0020F04D05E
:102360002B68DB6813F0030F5FD114F0400F07D028
:1023700018F0100F04D04BF4806B2B6810221A61F8
:1023800014F0200F02D018F0080F52D114F0100FE3
:1023900004D02B681B6913F0030F51D114F4003FD4
:1023A00002D017F0100F4FD114F4803F02D017F075
:1023B000080F50D114F4004F67D017F0040F61D00C
:1023C00014F4807F04D01AF0010F01D04BF0010B00
:1023D00014F4007F04D01AF0020F01D04BF0020B6E
:1023E00014F4806F04D01AF0040F01D04BF0040BEA
:1023F00014F4006F46D01AF0700A43D0BAF1300FCF
:1024000048D02FD9BAF1500F47D0BAF1600F47D05A
:10241000BAF1400F31D14BF0400B2EE02B6808226F
:10242000DA602846FFF716FF97E72846FFF74CF8D3
:102430009BE72B6808221A612846FFF70DFFA5E7E6
:102440002846FFF708FFA9E72B6810225A602846A4
:10245000FFF703FFA8E72B6808225A602846FFF71A
:10246000FDFEA7E7BAF1100F05D0BAF1200F04D195
:102470004BF0100B01E04BF0080B2A68936923F036
:10248000700393612B6804225A60BBF1000F0AD1DC
:10249000BDE8F88F4BF0200BEFE74BF0800BECE73B
:1024A0004BF4807BE9E76B6A43EA0B036B622846D7
:1024B000FEF7BCFCECE70000074AD36823F4E063B6
:1024C0001B041B0C000200F4E060184340F0BF60E6
:1024D00040F40030D060704700ED00E030B4174B9E
:1024E000DB68C3F30223C3F10704042C28BF0424D0
:1024F0001D1D062D18D9033B4FF0FF3505FA04F4D6
:1025000021EA0401994005FA03F322EA030319437F
:1025100000280BDB0901C9B200F1604000F5614001
:1025200080F8001330BC70470023E5E700F00F008F
:102530000901C9B2024B1954F4E700BF00ED00E0F5
:1025400014ED00E0002807DB00F01F024009012322
:102550009340024A42F82030704700BF00E100E09B
:102560000138B0F1807F0AD2064B5860064AF0214C
:1025700082F823100020986007221A60704701201B
:10258000704700BF10E000E000ED00E008B590F8F3
:102590002130022B03D004238363012008BD02688D
:1025A000136823F00E0313600268136823F001031D
:1025B00013600368194A934214D0143293421FD017
:1025C000143293421ED0143293421ED014329342DE
:1025D0001ED01432934202D04FF0807203E04FF4C9
:1025E000801200E001220E4B5A60012380F8213056
:1025F000002380F82030436B6BB198470020CDE773
:102600001022F0E74FF48072EDE74FF48052EAE7D2
:102610004FF48032E7E70020C0E700BF0800024027
:1026200000000240F0B482B000263246A2E0002D45
:102630005AD0012D00D1CE68FF2B69D88446FF2BDC
:1026400069D89500DCF800400F27AF4024EA070462
:1026500006FA05F52C43CCF800404C6814F0805F76
:1026600000F087805F4CA56945F00105A561A4696C
:1026700004F001040194019C9508AF1C5A4C54F8D5
:10268000274002F00307BF004FF00F0C0CFA07FCC5
:1026900024EA0C0C554CA04243D004F58064A042BF
:1026A00000F0818004F58064A0427ED004F580644F
:1026B000A04234D0042435E04D4FBD4214D00BD994
:1026C0004C4FBD4210D007F58037BD420CD0A7F566
:1026D0008017BD42B0D107E0A7F58017BD4203D0F7
:1026E00007F58037BD42A7D18D687DB1012D08D097
:1026F00044610826A0E7CE6808369DE7CE680C3610
:102700009AE70461082697E7002695E7042693E7F1
:1027100000F1040C93E7A2F10805AD0092E7032451
:1027200000E00024BC4044EA0C0402352E4F47F878
:1027300025404C6814F4803F39D02F4D2C681C4341
:102740002C604C6814F4003F37D02B4D6C681C4350
:102750006C604C6814F4801F35D0274DAC681C4366
:10276000AC604C6814F4001F33D0234DEC68234355
:10277000EB6001320B6833FA02F430D0012494404C
:1027800023409C42F5D14D68122DB7D094D8022D2C
:10279000B1D07FF64CAF032DB6D0112D7FF44CAFE6
:1027A000CE68043648E70124BCE70224BAE7124D9C
:1027B0002C6824EA03042C60C3E70F4D6C6824EAFC
:1027C00003046C60C5E70C4DAC6824EA0304AC60FC
:1027D000C7E7094DEC6824EA0303EB60C9E702B0E0
:1027E000F0BC7047001002400000014000080140AA
:1027F00000002110000031100004014012B909044A
:1028000001617047016170477047000008B5054BD2
:102810005B69034200D108BD024B5861FFF7F4FF2A
:10282000F9E700BF0004014082B0084B1B68084A6A
:10283000A2FB03235B0A00FB03F0019000BF019B96
:102840005A1E0192002BF9D102B0704700000020FF
:10285000D34D6210002800F0F58170B582B00446B7
:10286000036813F0010F2CD0AB4B5B6803F00C0333
:10287000042B1DD0A84B5B6803F00C03082B12D06F
:102880006368B3F5803F41D0002B55D103F18043FD
:1028900003F504331A6822F480321A601A6822F4AD
:1028A00080221A6037E09C4B5B6813F4803FE7D0CE
:1028B000994B1B6813F4003F03D06368002B00F0B2
:1028C000C381236813F0020F76D0934B5B6813F03B
:1028D0000C0F5FD0904B5B6803F00C03082B54D0B7
:1028E0002369002B00F08A808C4B01221A60FFF7CD
:1028F00035FA0546884B1B6813F0020F75D1FFF7B8
:102900002DFA401B0228F5D90320A0E1824A136862
:1029100043F480331360636843B3FFF71FFA05463F
:102920007D4B1B6813F4003FCBD1FFF717FA401B18
:102930006428F5D903208AE1B3F5A02F09D0764B9E
:102940001A6822F480321A601A6822F480221A600F
:10295000E1E703F18043A3F53C331A6842F4802297
:102960001A601A6842F480321A60D4E7FFF7F6F969
:102970000546694B1B6813F4003FA2D0FFF7EEF940
:10298000401B6428F5D9032061E1634B5B6813F4B5
:10299000803FA5D1604B1B6813F0020F04D0236960
:1029A000012B01D0012052E15B4A136823F0F803A8
:1029B000616943EAC1031360236813F0080F32D042
:1029C000A369002B5BD0564B01221A60FFF7C6F9B2
:1029D0000546514B5B6A13F0020F21D1FFF7BEF998
:1029E000401B0228F5D9032031E14B4A136823F03C
:1029F000F803616943EAC1031360DDE7474B002236
:102A00001A60FFF7ABF90546434B1B6813F0020F42
:102A1000D2D0FFF7A3F9401B0228F5D9032016E115
:102A20000120FFF701FF236813F0040F00F09880E6
:102A3000394BDB6913F0805F33D1374BDA6942F0F1
:102A40008052DA61DB6903F080530193019B012519
:102A5000344B1B6813F4807F25D0E368012B36D0FC
:102A6000002B4CD103F1804303F504331A6A22F0A2
:102A700001021A621A6A22F004021A622CE0284B40
:102A800000221A60FFF76AF90546234B5B6A13F0D0
:102A9000020FC8D0FFF762F9401B0228F5D90320C6
:102AA000D5E00025D4E71F4A136843F48073136010
:102AB000FFF754F906461B4B1B6813F4807FCCD1FB
:102AC000FFF74CF9801B6428F5D90320BFE0124AB8
:102AD000136A43F001031362E3687BB3FFF73EF927
:102AE00006460D4B1B6A13F0020F38D1FFF736F97B
:102AF000801B41F288339842F3D90320A7E0052BCD
:102B000012D0054B1A6A22F001021A621A6A22F0E8
:102B100004021A62E0E700BF0010024000004242D7
:102B200080044242007000404C4B1A6A42F004029A
:102B30001A621A6A42F001021A62CDE7FFF70EF933
:102B40000646464B1B6A13F0020F08D0FFF706F942
:102B5000801B41F288339842F3D9032077E0E5B92E
:102B6000E369002B72D03D4A526802F00C02082A39
:102B700056D0022B17D03A4B00221A60FFF7EEF81E
:102B80000446364B1B6813F0007F47D0FFF7E6F88A
:102B9000001B0228F5D9032059E0304AD36923F0FD
:102BA0008053D361DCE72E4B00221A60FFF7D6F882
:102BB00005462A4B1B6813F0007F06D0FFF7CEF8BE
:102BC000401B0228F5D9032041E0236AB3F5803F7A
:102BD0001AD022494B6823F47413226A606A0243B4
:102BE00013434B601E4B01221A60FFF7B7F80446EF
:102BF0001A4B1B6813F0007F0ED1FFF7AFF8001BD4
:102C00000228F5D9032022E0144A536823F4003344
:102C1000A1680B435360DCE7002018E0002016E0B9
:102C2000012B16D00D4B5B6803F48031226A914270
:102C300001D001200BE003F47013626A93420AD0C2
:102C4000012004E001207047012000E0002002B0D4
:102C500070BD0120FBE70020F9E700BF0010024033
:102C60006000424210B487B0164C94E80F000DF19A
:102C7000180C0CE90F00238AADF80430124B5B6886
:102C800003F00C02082A1AD1C3F38342624412F8FB
:102C9000102C13F4803F05D10C4800FB02F007B064
:102CA00010BC7047084B5B68C3F34043634413F8A0
:102CB000143C074800FB02F0B0FBF3F0EFE70448D8
:102CC000EDE700BF284400080010024000093D0065
:102CD00000127A00002800F0A38070B50446524B21
:102CE0001B6803F007038B420CD24F4A136823F092
:102CF00007030B431360136803F007038B4201D0F3
:102D0000012070BD236813F0020F17D013F0040FD9
:102D100004D0464A536843F4E0635360236813F0D9
:102D2000080F04D0414A536843F4605353603F4A4C
:102D3000536823F0F003A068034353600D462368F3
:102D400013F0010F31D06368012B20D0022B25D066
:102D5000364A126812F0020F64D034494A6822F0F1
:102D6000030213434B60FEF7F9FF06462F4B5B68E7
:102D700003F00C036268B3EB820F16D0FEF7EEFF90
:102D8000801B41F288339842F0D90320B9E7274AE3
:102D9000126812F4003FE0D10120B2E7234A126822
:102DA00012F0007FD9D10120ABE71F4B1B6803F065
:102DB0000703AB420CD91C4A136823F007032B43CB
:102DC0001360136803F00703AB4201D0012098E7BA
:102DD000236813F0040F06D0144A536823F4E06309
:102DE000E1680B435360236813F0080F07D00F4AC4
:102DF000536823F46053216943EAC1035360FFF72A
:102E000031FF0A4B5B68C3F30313094AD35CD84014
:102E1000084B1860084B1868FEF75EFF002070E74B
:102E20000120704701206CE70020024000100240A2
:102E3000104400080000002008000020014B186822
:102E4000704700BF0000002008B5FFF7F7FF044BF4
:102E50005B68C3F30223034AD35CD84008BD00BFBC
:102E6000001002402044000808B5FFF7E7FF044BBC
:102E70005B68C3F3C223034AD35CD84008BD00BFDC
:102E8000001002402044000870B4036A23F00103DC
:102E90000362036A4268846924F073040D6845EA9A
:102EA000040623F002048B6823430D4DA84209D089
:102EB0000B4DA8420DD0426086614A6842630362AE
:102EC00070BC704723F00803CC68234323F004034D
:102ED000EEE722F440724C6914438A692243EAE720
:102EE000002C014030B4036A23F480730362036A48
:102EF0004268C46924F073040D682C4323F4007302
:102F00008D6843EA05230F4DA84209D00D4DA84214
:102F10000ED04260C4614A68C263036230BC70472D
:102F200023F40063CD6843EA052323F48063EDE7CF
:102F300022F440524D6942EA05128D6942EA0512B7
:102F4000E7E700BF002C014030B4036A23F480534C
:102F50000362036A4468C26922F4E6420D6842EAE9
:102F6000052223F400538D6843EA0533074DA84238
:102F700006D04460C2614A680264036230BC704794
:102F800024F480444D6944EA8514F2E7002C0140A2
:102F9000704770477047704710B5044603681A6958
:102FA00012F0020F11D0DA6812F0020F0DD06FF09C
:102FB00002021A610123037703689B6913F0030F70
:102FC00070D0FFF7E6FF0023237723681A6912F019
:102FD000040F12D0DA6812F0040F0ED06FF0040262
:102FE0001A610223237723689B6913F4407F5FD023
:102FF0002046FFF7CEFF0023237723681A6912F0DB
:10300000080F12D0DA6812F0080F0ED06FF0080225
:103010001A61042323772368DB6913F0030F4ED072
:103020002046FFF7B6FF0023237723681A6912F0C2
:10303000100F12D0DA6812F0100F0ED06FF01002DD
:103040001A61082323772368DB6913F4407F3DD09E
:103050002046FFF79EFF0023237723681A6912F0AA
:10306000010F03D0DA6812F0010F36D123681A6914
:1030700012F0800F03D0DA6812F0800F34D1236889
:103080001A6912F0400F03D0DA6812F0400F32D103
:1030900023681A6912F0200F03D0DA6812F0200FAB
:1030A00030D110BDFFF774FF2046FFF773FF8AE7AA
:1030B0002046FFF76DFF2046FFF76CFF9BE7204699
:1030C000FFF766FF2046FFF765FFACE72046FFF7F6
:1030D0005FFF2046FFF75EFFBDE76FF001021A6158
:1030E0002046FEF777FCC1E76FF080021A612046A8
:1030F00000F0C9FAC3E76FF040021A612046FFF7FB
:103100004AFFC5E76FF020021A61204600F0BAFAC4
:10311000C7E7000003681B4A90420AD0B0F1804F15
:1031200007D0A2F59432904203D002F5806290421B
:1031300003D123F070034A681343124A90420AD025
:10314000B0F1804F07D0A2F59432904203D002F53F
:103150008062904203D123F44073CA68134323F082
:1031600080034A69134303608B68C3620B68836200
:10317000044B984202D00123436170470B690363FB
:10318000F9E700BF002C014038B310B5044690F8B1
:103190003D30EBB1022384F83D30211D2068FFF75C
:1031A000B9FF012384F8463084F83E3084F83F307C
:1031B00084F8403084F8413084F8423084F8433059
:1031C00084F8443084F8453084F83D30002010BD48
:1031D00080F83C30FEF7A8FCDCE7012070470028AF
:1031E00053D0F8B504460D4690F83D30002B47D03B
:1031F000022384F83D30214651F8042B936823F4D0
:10320000804323F0070393602068FFF783FF216862
:103210008A688E690F6A2868104326F4407626F083
:103220000306AA68AB6942EA0323334323F47C43D1
:1032300023F0FC03EE68EA6946EA02261E432A6A86
:1032400013032A6943EA0213334327F022076A680B
:103250006D6942EA05123A43886021688B612368F0
:103260001A62012384F8463084F83E3084F83F30F7
:1032700084F8423084F8433084F83D300020F8BDB3
:1032800080F83C30FEF724FCB2E7012070470000D4
:1032900030B4036A23F010030362036A446882694E
:1032A00022F4E6420D6842EA052223F020038D68ED
:1032B00043EA05130E4DA84209D00D4DA8420ED089
:1032C000446082614A688263036230BC704723F0C5
:1032D0008003CD6843EA051323F04003EDE724F4AF
:1032E00040644D6944EA85048D6944EA8504E7E752
:1032F000002C014038B590F83C30012B60D00D46D1
:103300000446012380F83C300C2A1AD8DFE802F08A
:10331000071919191D1919193119191944000068CB
:10332000FFF7B2FD2268936943F0080393612268B6
:10333000936923F0040393612268936929690B431D
:103340009361002084F83C0038BD0068FFF7A0FFBF
:103350002268936943F4006393612268936923F4BC
:103360008063936122689369296943EA0123936129
:10337000E7E70068FFF7B6FD2268D36943F008036A
:10338000D3612268D36923F00403D3612268D3692F
:1033900029690B43D361D4E70068FFF7D5FD2268A4
:1033A000D36943F40063D3612268D36923F4806353
:1033B000D3612268D369296943EA0123D361C0E755
:1033C0000220C1E710B401F01F01012303FA01F448
:1033D000036A23EA04030362036A8A401343036215
:1033E00010BC70470A4669BB90F83E30DBB213F15F
:1033F000FF3318BF0123002B60D110B5002A3DD147
:10340000022380F83E301146044601220068FFF78F
:10341000D9FF23682B4A934240D02368294A93421C
:1034200041D0B3F1804F3ED0A2F5943293423AD0CE
:1034300002F58062934236D01A6842F001021A60A7
:1034400000203AE0042909D008290FD090F8413033
:10345000DBB213F1FF3318BF0123CCE790F83F3004
:10346000DBB213F1FF3318BF0123C4E790F84030FB
:10347000DBB213F1FF3318BF0123BCE7042A05D0E8
:10348000082A07D0022380F84130BCE7022380F8E5
:103490003F30B8E7022380F84030B4E75A6C42F47A
:1034A00000425A64B9E79A6802F00702062A07D078
:1034B0001A6842F001021A60002010BD0120704716
:1034C0000020FAE7002C014038B504460D460022E2
:1034D0000068FFF777FF23681B4A934217D02368E1
:1034E000196A41F21112114208D1196A40F244429C
:1034F000114203D11A6822F001021A60B5B1042DFD
:1035000019D0082D1BD0012384F8413011E0196A2D
:1035100041F211121142E2D1196A40F244421142C1
:10352000DDD15A6C22F400425A64D8E7012384F8B2
:103530003E30002038BD012384F83F30F9E70123F5
:1035400084F84030F5E700BF002C014070B590F8DA
:103550003E30DBB290F83F2090F84240E4B290F861
:1035600043500E46D9B9012B01D0012070BD012C6A
:1035700001D00120FAE7022380F83E3080F8423083
:103580000446C6B3042E42D0012200210068FFF792
:1035900019FF012204212068FFF714FF30E0D2B2A6
:1035A000EDB2042903D0012B0FD00120DEE7012A60
:1035B00001D00120DAE7012D01D00120D6E7022356
:1035C00080F83F3080F84330DAE7012A01D001204B
:1035D000CCE7012C01D00120C8E7012D01D001204A
:1035E000C4E7022380F83E3080F83F3080F8423054
:1035F00080F84330C4E7012200210068FFF7E2FEB3
:103600002268136843F0010313600020AEE7012233
:1036100004210068FFF7D6FEF2E7000090F83C3086
:10362000012B2BD030B4012380F83C30022380F8EA
:103630003D3003685C689D6824F070040A6822438A
:103640005A6003680E4A93420AD0B3F1804F07D004
:10365000A2F59432934203D002F58062934204D1E2
:1036600025F080054A6815439D60012380F83D30B0
:10367000002380F83C30184630BC70470220704769
:10368000002C0140704770470268D36823F49073A0
:10369000D3600268536923F001035361202380F84B
:1036A0003A30704790F83930DBB2212B27D183684C
:1036B000B3F5805F16D0036A5A1C02621A78036859
:1036C0005A60C38C013B9BB2C384D3B90268D368F0
:1036D00023F08003D3600268D36843F04003D360D3
:1036E000002070470369002BE5D1036A1B8802683C
:1036F000C3F308035360036A02330362E1E7022065
:10370000704700207047000038B50446026813690E
:1037100023F44053C1680B43136183680269134368
:1037200042691A430168CB6823F4B05323F00C03B9
:103730001343CB600268536923F4407381690B43E0
:1037400053610268124B9A421FD0FFF77DFB00EBDA
:10375000800000EB800063689B00B0FBF3F00D4D30
:10376000A5FB00325109642202FB1102130132331E
:10377000A5FB03235B0903F0F00202EB011203F047
:103780000F03216813448B6038BDFFF76DFBDEE744
:10379000003801401F85EB512DE9F04105460F46E9
:1037A00016469846069C2B681B6837EA03030CBF35
:1037B00001230023B3421DD1B4F1FF3FF3D02CB15C
:1037C000FEF7CCFAA0EB0800A042ECD92A68D36837
:1037D00023F4D073D3602A68536923F00103536143
:1037E000202385F8393085F83A30002385F83830C1
:1037F000032000E00020BDE8F08158B310B5044676
:1038000090F839300BB3242384F839302268D36818
:1038100023F40053D3602046FFF776FF2268136934
:1038200023F4904313612268536923F02A03536100
:103830002268D36843F40053D3600020E063202360
:1038400084F8393084F83A3010BD80F83830FEF70B
:10385000A9F9D8E7012070472DE9F04182B01E4652
:1038600090F83930DBB2202B54D104460D469046F7
:10387000002954D0002A54D090F83830012B52D06F
:10388000012380F838300023C363212380F83930C6
:10389000FEF764FA0746A4F82480A4F82680A368FB
:1038A000B3F5805F05D04FF00008002384F838306E
:1038B00011E0236913B14FF00008F6E7A846002590
:1038C000F3E738F8023B2268C3F308035360E38C44
:1038D000013B9BB2E384E38C9BB273B100963B4601
:1038E000002280212046FFF757FFF0B9002DE8D0D5
:1038F00015F8012B23685A60E9E700963B46002241
:1039000040212046FFF748FF034680B9202284F873
:10391000392000E00223184602B0BDE8F0810123FF
:10392000F9E70123F7E70223F5E70323F3E703238E
:10393000F1E7704708B50168CB6823F04003CB601E
:10394000202380F83930FFF7F4FF002008BD7047CE
:1039500008B590F83A30DBB2222B40D18368B3F53A
:10396000805F13D0826AB3F5805F02D0DBB9036950
:10397000CBB903685B681370836A01338362C38DBC
:10398000013B9BB2C385A3B1002029E00269002A54
:10399000E8D1826A03685B68C3F308031380836A13
:1039A00002338362EBE703685B6803F07F03137005
:1039B000E2E70268D36823F02003D3600268D3688B
:1039C00023F48073D3600268536923F001035361C9
:1039D000202380F83A30FFF7BAFF002000E00220F1
:1039E00008BD704710B5044602681368D168526973
:1039F00013F00F0005D113F0200F02D011F0200FAB
:103A000056D100286AD012F0010202D111F4907F41
:103A100064D013F0010F06D011F4807F03D0E06B67
:103A200040F00100E06313F0040F04D01AB1E06B22
:103A300040F00200E06313F0020F04D01AB1E06B13
:103A400040F00400E06313F0080F07D011F0200FDE
:103A500000D11AB1E26B42F00802E263E26B002A85
:103A600048D013F0200F02D011F0200F24D123688A
:103A70005B6903F04003E26B12F0080F00D13BB327
:103A80002046FFF701FE23685A6912F0400F1BD051
:103A90005A6922F040025A61636B8BB11A4A5A6329
:103AA000606BFEF773FD28B3606B436B984721E0B2
:103AB0002046FFF74DFF1DE02046FFF749FFD6E700
:103AC0002046FFF78EFF15E02046FFF78AFF11E042
:103AD0002046FFF786FF0023E3630BE013F0800F1F
:103AE00002D011F0800F06D113F0400F02D011F078
:103AF000400F04D110BD2046FFF7D4FDFAE7204661
:103B0000FFF718FFF6E700BF0D3B000808B5406A55
:103B10000023C385C384FFF764FF08BD002103E0D1
:103B20000B4B5B58435004310A480B4B42189A42E6
:103B3000F6D30A4A02E0002342F8043B084B9A42BB
:103B4000F9D3FEF7C7F800F015F8FDF785FA7047CE
:103B500018460008000000207000002070000020BF
:103B60000C020020FEE70000014B1868704700BF00
:103B70000C00002070B500250C4E0D4CA41BA410A9
:103B8000A54209D100F034FC00250A4E0A4CA41BC2
:103B9000A410A54205D170BD56F8253098470135CF
:103BA000EEE756F8253098470135F2E71046000851
:103BB0001046000810460008144600080346024458
:103BC000934200D1704703F8011BF9E70EB46FF080
:103BD000004100B59CB01DAB029006900791049186
:103BE0000848094953F8042B0591006802A901937C
:103BF00000F066F80022029B1A701CB05DF804EB1E
:103C000003B070470C0000200802FFFF2DE9F047C9
:103C10008E6882469E420C469046994637D88A89DD
:103C200012F4906F31D00223256809696F1A656913
:103C300005EB450595FBF3F509F101033B449D4276
:103C400038BF1D46530530D5294600F037FB0646E0
:103C500050B90C234FF0FF30CAF80030A38943F06D
:103C60004003A381BDE8F0873A46216900F0B6FA27
:103C7000A38923F4906343F08003A38126613E442B
:103C800026604E466561ED1BA5604E4500D94E4647
:103C900032464146206800F0ACFAA36800209B1B26
:103CA000A36023681E442660DCE72A4600F060FB20
:103CB00006460028E2D12169504600F0B3FAC8E771
:103CC0002DE9F04F1D468B899DB01F0680460C469E
:103CD00016460FD50B696BB9402100F0EFFA206052
:103CE000206128B90C23C8F800304FF0FF30C8E03D
:103CF000402363610023099320238DF8293030236A
:103D00004FF0010B8DF82A30039537463D4615F8E4
:103D1000013B0BB1252B3ED1B7EB060A0BD0534626
:103D2000324621464046FFF771FF013000F0A48083
:103D3000099B534409933B78002B00F09D8000239E
:103D40004FF0FF32CDE90523049307938DF85330EC
:103D50001A932F46052217F8011B504800F030FA3D
:103D6000049BD0B9D90644BF20228DF853201A07EE
:103D700044BF2B228DF853202A782A2A15D02F46AB
:103D800000200A25079A394611F8013B303B092BE0
:103D90004DD9B8B10FE02F46B8E7404A3D46801AEA
:103DA0000BFA00F018430490D3E7039A111D126830
:103DB0000391002A01DB079204E0524243F0020320
:103DC000079204933B782E2B0CD17B782A2B33D18E
:103DD000039B02371A1D1B680392002BB8BF4FF0DC
:103DE000FF3305932E4D03223978284600F0E8F979
:103DF00038B14023401B03FA00F0049B0137034312
:103E000004933978062227487E1C8DF8281000F08C
:103E1000D7F9002838D0244B13BB039B073323F07A
:103E2000070308330393099B4B4409936DE705FB94
:103E3000023201200F46A6E700230A251946013762
:103E40000593384610F8012B303A092A03D9002B84
:103E5000C8D00591C6E705FB012101230746F0E71D
:103E600003AB00932246114B04A94046AFF30080F8
:103E7000B0F1FF3F8146D6D1A3895B063FF535AF50
:103E800009981DB0BDE8F08F03AB00932246074BA5
:103E900004A9404600F082F8EAE700BFDC450008CC
:103EA000E2450008E6450008000000000D3C00085F
:103EB0002DE9F04791461F468A680B6906469342F2
:103EC000B8BF1346C9F8003091F843200C46DDF81E
:103ED000208012B10133C9F800302368990642BF2F
:103EE000D9F800300233C9F80030256815F006050E
:103EF00007D104F1190AE368D9F800209B1AAB42F4
:103F000029DC94F843302268003318BF012392065D
:103F10002ED404F1430239463046C047013021D047
:103F20002368E56803F00603042B18BF0025D9F8C1
:103F300000204FF0000908BFAD1AA368226908BF2E
:103F400025EAE5759342C4BF9B1AED181A344D4516
:103F50001AD1002008E00123524639463046C047B6
:103F6000013003D14FF0FF30BDE8F0870135C2E7E3
:103F70003020E11881F843005A1C94F8451022447F
:103F8000023382F84310C4E7012322463946304603
:103F9000C0470130E6D009F10109D8E72DE9F04327
:103FA00001F1430C0C46097E85B06E291746064682
:103FB00098460C9A00F0B38022D8632936D00AD8EC
:103FC000002900F0B980582900F0838004F14205EF
:103FD00084F8421032E0642901D06929F6D12068C2
:103FE0001368050603F104012AD51B681160002B34
:103FF00003DA2D225B4284F843206F480A2239E01D
:10400000732900F09D8008D86F2920D07029DDD158
:10401000236843F02003236003E0752917D0782933
:10402000D4D17823654884F8453055E0136804F10D
:104030004205191D1B68116084F8423001238CE091
:104040001B6810F0400F116018BF1BB2CFE7136858
:104050002568181D1060280601D51B6802E0680657
:10406000FBD51B886F2914BF0A2208225248002161
:1040700084F843106568002DA560C0F29580216822
:1040800021F004012160002B3DD1002D40F08E80F5
:104090006546082A0BD12368DB0708D523696268C7
:1040A0009A42DEBF302305F8013C05F1FF35ACEB49
:1040B00005032361CDF800803B4603AA2146304624
:1040C000FFF7F6FE01304DD14FF0FF3005B0BDE8EF
:1040D000F083394884F84510136821681D1D1B685A
:1040E00015600A060BD5CA0744BF41F020012160C4
:1040F0001BB9226822F0200222601022B7E74D0689
:1041000048BF9BB2EFE76546B3FBF2F102FB113308
:10411000C35C05F8013D0B460029F5D1B9E71368EA
:104120002568181D6169106028061B6801D5196093
:1041300002E06A06FBD51980002365462361B9E7D2
:104140001368191D11601D6862680021284600F07F
:1041500037F808B1401B606063682361002384F86E
:104160004330A7E723692A4639463046C047013025
:10417000AAD023689B0713D4E068039B9842B8BF7A
:104180001846A3E701234A4639463046C047013066
:104190009AD00135E368039A9B1AAB42F2DCEBE755
:1041A000002504F11909F5E7002BACD1037804F1DF
:1041B000420584F842306CE7ED450008FE450008F2
:1041C00010B5C9B202449042034601D1002303E076
:1041D0001C7801308C42F6D1184610BD10B5431E34
:1041E0000A44914200D110BD11F8014B03F8014F70
:1041F000F7E7884210B501EB020307D8421E994247
:104200000AD011F8014B02F8014FF8E78342F5D9C3
:104210008118D21AD34200D110BD13F8014D01F814
:10422000014DF7E738B50546002943D051F8043C65
:104230000C1F002BB8BFE41800F0D0F81E4A13681A
:10424000104633B9636014602846BDE8384000F07A
:10425000C6B8A3420BD921686218934201BF1A68FD
:104260005B685218226063600460EDE713465A6889
:104270000AB1A242FAD919685818A0420BD1206895
:104280000144581882421960DED110685268014416
:1042900019605A60D8E702D90C232B60D4E7206854
:1042A00021188A4201BF11685268091821606260B2
:1042B0005C60C9E738BD00BFC400002070B5CD1CEC
:1042C00025F0030508350C2D38BF0C25002D0646BA
:1042D00001DBA94203D90C233360002070BD00F03C
:1042E0007DF8214A1468214691B9204C23681BB9F6
:1042F000304600F063F820602946304600F05EF852
:10430000431C24D10C233046336000F068F8E4E706
:104310000B685B1B18D40B2B0FD90B60CC18CD503E
:10432000304600F05CF804F10B00231D20F007007C
:10433000C31AD3D05A42E250D0E74B688C4216BF22
:10434000636013600C46EBE70C464968CCE7C41C7D
:1043500024F00304A04205D0211A304600F02EF8C4
:104360000130CFD02560DBE7C4000020C80000206A
:10437000F8B5074614460E4621B9BDE8F840114687
:10438000FFF79CBF22B9FFF74DFF25462846F8BD31
:1043900000F026F8A0420FD221463846FFF78EFFE4
:1043A00005460028F2D031462246FFF717FF314676
:1043B0003846FFF737FFE9E73546E7E738B500232A
:1043C000054C054608462360FDF766FC431C02D1F8
:1043D000236803B12B6038BD080200207047704786
:1043E00051F8043C181F002BBCBF0B58C018704775
:1043F000F8B500BFF8BC08BC9E467047F8B500BFD2
:08440000F8BC08BC9E467047A1
:1044080000640000010001460000000000000000F8
:104418000102030406070809000000000102030462
:1044280002030405060708090A0B0C0D0E0F1010ED
:10443800010200004D657373616765205472616EF7
:10444800736D69747465643A4D300D0A000000009C
:104458004D657373616765205472616E736D69741D
:104468007465643A4D310D0A000000004D657373A0
:10447800616765205472616E736D69747465643A1E
:104488004D320D0A0000000043414E204572726F04
:10449800722044657465637465640D0A0000000049
:1044A800496E697469616C697A6174696F6E7320A9
:1044B800537563636573730D0A00000043414E2012
:1044C800616E6420456E636F646572205374617217
:1044D8007465642E0D0A57616974696E6720666F8A
:1044E8007220496E7075742E2E0D0A00456E636F2A
:1044F8006465722076616C75653A2025640D0A0042
:10450800526571756972656420456E636F64657282
:104518002056616C75653A2025640D0A000000007C
:10452800526571756972656420506F736974696F3B
:104538006E2061747461696E65640D0A0000000084
:10454800537461727465642050574D0D0A00000061
:104558004D65737361676520526563656976656447
:10456800203A2049442D25782025642025642025DB
:104578006420256420256420256420256420256482
:10458800200D0A00456E636F6465722076616C7554
:10459800653A205B25645D0D0A000000496E707560
:1045A800742076616C75653A205B25645D0D0A00A0
:1045B800496E736964652043414E31205478200D5B
:1045C8000A00000043414E204572726F722E2E2061
:1045D8000D0A0000232D302B2000686C4C00656606
:1045E800674546470030313233343536373839413C
:1045F8004243444546003031323334353637383952
:08460800616263646566000055
:044610003501000868
:044614001101000888
:104618000024F40001000000100000001000002039
:104628000000000000000000000000000000000082
:104638000000000000000000000000000000000072
:104648000000000000000000000000000000000062
:104658000000000000000000000000000000000052
:104668000000000000000000000000000000000042
:104678000000000000000000000000000000000032
:0400000508003B1D97
:00000001FF
